No.     Time                       Source                Destination           Protocol Length Info
      6 2014-10-11 21:25:27.422360 192.168.56.101        192.168.56.103        DNS      128    Standard query response A 192.168.56.100

Frame 6: 128 bytes on wire (1024 bits), 128 bytes captured (1024 bits)
    Arrival Time: Oct 11, 2014 21:25:27.422360000 PDT
    Epoch Time: 1413087927.422360000 seconds
    [Time delta from previous captured frame: 0.002528000 seconds]
    [Time delta from previous displayed frame: 0.002528000 seconds]
    [Time since reference or first frame: 0.022772000 seconds]
    Frame Number: 6
    Frame Length: 128 bytes (1024 bits)
    Capture Length: 128 bytes (1024 bits)
    [Frame is marked: False]
    [Frame is ignored: False]
    [Protocols in frame: eth:ip:udp:dns]
    [Coloring Rule Name: UDP]
    [Coloring Rule String: udp]
Ethernet II, Src: CadmusCo_7b:1e:e5 (08:00:27:7b:1e:e5), Dst: CadmusCo_d5:40:a3 (08:00:27:d5:40:a3)
    Destination: CadmusCo_d5:40:a3 (08:00:27:d5:40:a3)
        Address: CadmusCo_d5:40:a3 (08:00:27:d5:40:a3)
        .... ...0 .... .... .... .... = IG bit: Individual address (unicast)
        .... ..0. .... .... .... .... = LG bit: Globally unique address (factory default)
    Source: CadmusCo_7b:1e:e5 (08:00:27:7b:1e:e5)
        Address: CadmusCo_7b:1e:e5 (08:00:27:7b:1e:e5)
        .... ...0 .... .... .... .... = IG bit: Individual address (unicast)
        .... ..0. .... .... .... .... = LG bit: Globally unique address (factory default)
    Type: IP (0x0800)
Internet Protocol Version 4, Src: 192.168.56.101 (192.168.56.101), Dst: 192.168.56.103 (192.168.56.103)
    Version: 4
    Header length: 20 bytes
    Differentiated Services Field: 0x00 (DSCP 0x00: Default; ECN: 0x00: Not-ECT (Not ECN-Capable Transport))
        0000 00.. = Differentiated Services Codepoint: Default (0x00)
        .... ..00 = Explicit Congestion Notification: Not-ECT (Not ECN-Capable Transport) (0x00)
    Total Length: 114
    Identification: 0x4c62 (19554)
    Flags: 0x00
        0... .... = Reserved bit: Not set
        .0.. .... = Don't fragment: Not set
        ..0. .... = More fragments: Not set
    Fragment offset: 0
    Time to live: 64
    Protocol: UDP (17)
    Header checksum: 0x3bfc [correct]
        [Good: True]
        [Bad: False]
    Source: 192.168.56.101 (192.168.56.101)
    Destination: 192.168.56.103 (192.168.56.103)
User Datagram Protocol, Src Port: domain (53), Dst Port: 33333 (33333)
    Source port: domain (53)
    Destination port: 33333 (33333)
    Length: 94
    Checksum: 0x76cb [validation disabled]
        [Good Checksum: False]
        [Bad Checksum: False]
Domain Name System (response)
    [Request In: 1]
    [Time: 0.022772000 seconds]
    Transaction ID: 0x59ac
    Flags: 0x8180 (Standard query response, No error)
        1... .... .... .... = Response: Message is a response
        .000 0... .... .... = Opcode: Standard query (0)
        .... .0.. .... .... = Authoritative: Server is not an authority for domain
        .... ..0. .... .... = Truncated: Message is not truncated
        .... ...1 .... .... = Recursion desired: Do query recursively
        .... .... 1... .... = Recursion available: Server can do recursive queries
        .... .... .0.. .... = Z: reserved (0)
        .... .... ..0. .... = Answer authenticated: Answer/authority portion was not authenticated by the server
        .... .... ...0 .... = Non-authenticated data: Unacceptable
        .... .... .... 0000 = Reply code: No error (0)
    Questions: 1
    Answer RRs: 1
    Authority RRs: 1
    Additional RRs: 1
    Queries
        xyz.dnsphishing.com: type A, class IN
            Name: xyz.dnsphishing.com
            Type: A (Host address)
            Class: IN (0x0001)
    Answers
        xyz.dnsphishing.com: type A, class IN, addr 192.168.56.100
            Name: xyz.dnsphishing.com
            Type: A (Host address)
            Class: IN (0x0001)
            Time to live: 3 days
            Data length: 4
            Addr: 192.168.56.100 (192.168.56.100)
    Authoritative nameservers
        dnsphishing.com: type NS, class IN, ns ns.dnsphishing.com
            Name: dnsphishing.com
            Type: NS (Authoritative name server)
            Class: IN (0x0001)
            Time to live: 3 days
            Data length: 5
            Name Server: ns.dnsphishing.com
    Additional records
        ns.dnsphishing.com: type A, class IN, addr 192.168.56.10
            Name: ns.dnsphishing.com
            Type: A (Host address)
            Class: IN (0x0001)
            Time to live: 3 days
            Data length: 4
            Addr: 192.168.56.10 (192.168.56.10)

0000  08 00 27 d5 40 a3 08 00 27 7b 1e e5 08 00 45 00   ..'.@...'{....E.
0010  00 72 4c 62 00 00 40 11 3b fc c0 a8 38 65 c0 a8   .rLb..@.;...8e..
0020  38 67 00 35 82 35 00 5e 76 cb 59 ac 81 80 00 01   8g.5.5.^v.Y.....
0030  00 01 00 01 00 01 03 78 79 7a 0b 64 6e 73 70 68   .......xyz.dnsph
0040  69 73 68 69 6e 67 03 63 6f 6d 00 00 01 00 01 c0   ishing.com......
0050  0c 00 01 00 01 00 03 f4 80 00 04 c0 a8 38 64 c0   .............8d.
0060  10 00 02 00 01 00 03 f4 80 00 05 02 6e 73 c0 10   ............ns..
0070  c0 41 00 01 00 01 00 03 f4 80 00 04 c0 a8 38 0a   .A............8.
