No.     Time                       Source                Destination           Protocol Length Info
      5 2014-10-11 21:25:27.419832 192.168.56.102        192.168.56.101        DNS      139    Standard query response A 192.168.56.100

Frame 5: 139 bytes on wire (1112 bits), 139 bytes captured (1112 bits)
    Arrival Time: Oct 11, 2014 21:25:27.419832000 PDT
    Epoch Time: 1413087927.419832000 seconds
    [Time delta from previous captured frame: 0.006800000 seconds]
    [Time delta from previous displayed frame: 0.006800000 seconds]
    [Time since reference or first frame: 0.020244000 seconds]
    Frame Number: 5
    Frame Length: 139 bytes (1112 bits)
    Capture Length: 139 bytes (1112 bits)
    [Frame is marked: False]
    [Frame is ignored: False]
    [Protocols in frame: eth:ip:udp:dns]
    [Coloring Rule Name: UDP]
    [Coloring Rule String: udp]
Ethernet II, Src: CadmusCo_32:5b:06 (08:00:27:32:5b:06), Dst: CadmusCo_7b:1e:e5 (08:00:27:7b:1e:e5)
    Destination: CadmusCo_7b:1e:e5 (08:00:27:7b:1e:e5)
        Address: CadmusCo_7b:1e:e5 (08:00:27:7b:1e:e5)
        .... ...0 .... .... .... .... = IG bit: Individual address (unicast)
        .... ..0. .... .... .... .... = LG bit: Globally unique address (factory default)
    Source: CadmusCo_32:5b:06 (08:00:27:32:5b:06)
        Address: CadmusCo_32:5b:06 (08:00:27:32:5b:06)
        .... ...0 .... .... .... .... = IG bit: Individual address (unicast)
        .... ..0. .... .... .... .... = LG bit: Globally unique address (factory default)
    Type: IP (0x0800)
Internet Protocol Version 4, Src: 192.168.56.102 (192.168.56.102), Dst: 192.168.56.101 (192.168.56.101)
    Version: 4
    Header length: 20 bytes
    Differentiated Services Field: 0x00 (DSCP 0x00: Default; ECN: 0x00: Not-ECT (Not ECN-Capable Transport))
        0000 00.. = Differentiated Services Codepoint: Default (0x00)
        .... ..00 = Explicit Congestion Notification: Not-ECT (Not ECN-Capable Transport) (0x00)
    Total Length: 125
    Identification: 0xd90f (55567)
    Flags: 0x00
        0... .... = Reserved bit: Not set
        .0.. .... = Don't fragment: Not set
        ..0. .... = More fragments: Not set
    Fragment offset: 0
    Time to live: 64
    Protocol: UDP (17)
    Header checksum: 0xaf44 [correct]
        [Good: True]
        [Bad: False]
    Source: 192.168.56.102 (192.168.56.102)
    Destination: 192.168.56.101 (192.168.56.101)
User Datagram Protocol, Src Port: domain (53), Dst Port: 33333 (33333)
    Source port: domain (53)
    Destination port: 33333 (33333)
    Length: 105
    Checksum: 0x9824 [validation disabled]
        [Good Checksum: False]
        [Bad Checksum: False]
Domain Name System (response)
    [Request In: 4]
    [Time: 0.006800000 seconds]
    Transaction ID: 0x0a9d
    Flags: 0x8590 (Standard query response, No error)
        1... .... .... .... = Response: Message is a response
        .000 0... .... .... = Opcode: Standard query (0)
        .... .1.. .... .... = Authoritative: Server is an authority for domain
        .... ..0. .... .... = Truncated: Message is not truncated
        .... ...1 .... .... = Recursion desired: Do query recursively
        .... .... 1... .... = Recursion available: Server can do recursive queries
        .... .... .0.. .... = Z: reserved (0)
        .... .... ..0. .... = Answer authenticated: Answer/authority portion was not authenticated by the server
        .... .... ...1 .... = Non-authenticated data: Acceptable
        .... .... .... 0000 = Reply code: No error (0)
    Questions: 1
    Answer RRs: 1
    Authority RRs: 1
    Additional RRs: 2
    Queries
        xyz.dnsphishing.com: type A, class IN
            Name: xyz.dnsphishing.com
            Type: A (Host address)
            Class: IN (0x0001)
    Answers
        xyz.dnsphishing.com: type A, class IN, addr 192.168.56.100
            Name: xyz.dnsphishing.com
            Type: A (Host address)
            Class: IN (0x0001)
            Time to live: 3 days
            Data length: 4
            Addr: 192.168.56.100 (192.168.56.100)
    Authoritative nameservers
        dnsphishing.com: type NS, class IN, ns ns.dnsphishing.com
            Name: dnsphishing.com
            Type: NS (Authoritative name server)
            Class: IN (0x0001)
            Time to live: 3 days
            Data length: 5
            Name Server: ns.dnsphishing.com
    Additional records
        ns.dnsphishing.com: type A, class IN, addr 192.168.56.10
            Name: ns.dnsphishing.com
            Type: A (Host address)
            Class: IN (0x0001)
            Time to live: 3 days
            Data length: 4
            Addr: 192.168.56.10 (192.168.56.10)
        <Root>: type OPT
            Name: <Root>
            Type: OPT (EDNS0 option)
            UDP payload size: 4096
            Higher bits in extended RCODE: 0x0
            EDNS0 version: 0
            Z: 0x8000
                Bit 0 (DO bit): 1 (Accepts DNSSEC security RRs)
                Bits 1-15: 0x0 (reserved)
            Data length: 0

0000  08 00 27 7b 1e e5 08 00 27 32 5b 06 08 00 45 00   ..'{....'2[...E.
0010  00 7d d9 0f 00 00 40 11 af 44 c0 a8 38 66 c0 a8   .}....@..D..8f..
0020  38 65 00 35 82 35 00 69 98 24 0a 9d 85 90 00 01   8e.5.5.i.$......
0030  00 01 00 01 00 02 03 78 79 7a 0b 64 6e 73 70 68   .......xyz.dnsph
0040  69 73 68 69 6e 67 03 63 6f 6d 00 00 01 00 01 c0   ishing.com......
0050  0c 00 01 00 01 00 03 f4 80 00 04 c0 a8 38 64 c0   .............8d.
0060  10 00 02 00 01 00 03 f4 80 00 05 02 6e 73 c0 10   ............ns..
0070  c0 41 00 01 00 01 00 03 f4 80 00 04 c0 a8 38 0a   .A............8.
0080  00 00 29 10 00 00 00 80 00 00 00                  ..)........
