No.     Time                       Source                Destination           Protocol Length Info
      1 2014-10-12 20:52:52.753130 192.168.56.101        192.168.56.102        DNS      86     Standard query A x-6102069.dnsphishing.com

Frame 1: 86 bytes on wire (688 bits), 86 bytes captured (688 bits)
    Arrival Time: Oct 12, 2014 20:52:52.753130000 PDT
    Epoch Time: 1413172372.753130000 seconds
    [Time delta from previous captured frame: 0.000000000 seconds]
    [Time delta from previous displayed frame: 0.000000000 seconds]
    [Time since reference or first frame: 0.000000000 seconds]
    Frame Number: 1
    Frame Length: 86 bytes (688 bits)
    Capture Length: 86 bytes (688 bits)
    [Frame is marked: False]
    [Frame is ignored: False]
    [Protocols in frame: eth:ip:udp:dns]
    [Coloring Rule Name: UDP]
    [Coloring Rule String: udp]
Ethernet II, Src: CadmusCo_d5:40:a3 (08:00:27:d5:40:a3), Dst: CadmusCo_7b:1e:e5 (08:00:27:7b:1e:e5)
    Destination: CadmusCo_7b:1e:e5 (08:00:27:7b:1e:e5)
        Address: CadmusCo_7b:1e:e5 (08:00:27:7b:1e:e5)
        .... ...0 .... .... .... .... = IG bit: Individual address (unicast)
        .... ..0. .... .... .... .... = LG bit: Globally unique address (factory default)
    Source: CadmusCo_d5:40:a3 (08:00:27:d5:40:a3)
        Address: CadmusCo_d5:40:a3 (08:00:27:d5:40:a3)
        .... ...0 .... .... .... .... = IG bit: Individual address (unicast)
        .... ..0. .... .... .... .... = LG bit: Globally unique address (factory default)
    Type: IP (0x0800)
Internet Protocol Version 4, Src: 192.168.56.101 (192.168.56.101), Dst: 192.168.56.102 (192.168.56.102)
    Version: 4
    Header length: 20 bytes
    Differentiated Services Field: 0x00 (DSCP 0x00: Default; ECN: 0x00: Not-ECT (Not ECN-Capable Transport))
        0000 00.. = Differentiated Services Codepoint: Default (0x00)
        .... ..00 = Explicit Congestion Notification: Not-ECT (Not ECN-Capable Transport) (0x00)
    Total Length: 72
    Identification: 0x3039 (12345)
    Flags: 0x02 (Don't Fragment)
        0... .... = Reserved bit: Not set
        .1.. .... = Don't fragment: Set
        ..0. .... = More fragments: Not set
    Fragment offset: 0
    Time to live: 255
    Protocol: UDP (17)
    Header checksum: 0x594f [correct]
        [Good: True]
        [Bad: False]
    Source: 192.168.56.101 (192.168.56.101)
    Destination: 192.168.56.102 (192.168.56.102)
User Datagram Protocol, Src Port: 33333 (33333), Dst Port: domain (53)
    Source port: 33333 (33333)
    Destination port: domain (53)
    Length: 52
    Checksum: 0xc0ab [validation disabled]
        [Good Checksum: False]
        [Bad Checksum: False]
Domain Name System (query)
    Transaction ID: 0x59ac
    Flags: 0x0100 (Standard query)
        0... .... .... .... = Response: Message is a query
        .000 0... .... .... = Opcode: Standard query (0)
        .... ..0. .... .... = Truncated: Message is not truncated
        .... ...1 .... .... = Recursion desired: Do query recursively
        .... .... .0.. .... = Z: reserved (0)
        .... .... ...0 .... = Non-authenticated data: Unacceptable
    Questions: 1
    Answer RRs: 0
    Authority RRs: 0
    Additional RRs: 0
    Queries
        x-6102069.dnsphishing.com: type A, class IN
            Name: x-6102069.dnsphishing.com
            Type: A (Host address)
            Class: IN (0x0001)

0000  08 00 27 7b 1e e5 08 00 27 d5 40 a3 08 00 45 00   ..'{....'.@...E.
0010  00 48 30 39 40 00 ff 11 59 4f c0 a8 38 65 c0 a8   .H09@...YO..8e..
0020  38 66 82 35 00 35 00 34 c0 ab 59 ac 01 00 00 01   8f.5.5.4..Y.....
0030  00 00 00 00 00 00 09 78 2d 36 31 30 32 30 36 39   .......x-6102069
0040  0b 64 6e 73 70 68 69 73 68 69 6e 67 03 63 6f 6d   .dnsphishing.com
0050  00 00 01 00 01 0a                                 ......

