No.     Time                       Source                Destination           Protocol Length Info
  20862 2014-10-12 20:53:02.764514 192.168.56.103        192.168.56.102        DNS      134    Standard query response A 1.2.3.4

Frame 20862: 134 bytes on wire (1072 bits), 134 bytes captured (1072 bits)
    Arrival Time: Oct 12, 2014 20:53:02.764514000 PDT
    Epoch Time: 1413172382.764514000 seconds
    [Time delta from previous captured frame: 0.000408000 seconds]
    [Time delta from previous displayed frame: 0.000408000 seconds]
    [Time since reference or first frame: 10.011384000 seconds]
    Frame Number: 20862
    Frame Length: 134 bytes (1072 bits)
    Capture Length: 134 bytes (1072 bits)
    [Frame is marked: False]
    [Frame is ignored: False]
    [Protocols in frame: eth:ip:udp:dns]
Ethernet II, Src: CadmusCo_32:5b:06 (08:00:27:32:5b:06), Dst: CadmusCo_7b:1e:e5 (08:00:27:7b:1e:e5)
    Destination: CadmusCo_7b:1e:e5 (08:00:27:7b:1e:e5)
        Address: CadmusCo_7b:1e:e5 (08:00:27:7b:1e:e5)
        .... ...0 .... .... .... .... = IG bit: Individual address (unicast)
        .... ..0. .... .... .... .... = LG bit: Globally unique address (factory default)
    Source: CadmusCo_32:5b:06 (08:00:27:32:5b:06)
        Address: CadmusCo_32:5b:06 (08:00:27:32:5b:06)
        .... ...0 .... .... .... .... = IG bit: Individual address (unicast)
        .... ..0. .... .... .... .... = LG bit: Globally unique address (factory default)
    Type: IP (0x0800)
Internet Protocol Version 4, Src: 192.168.56.103 (192.168.56.103), Dst: 192.168.56.102 (192.168.56.102)
    Version: 4
    Header length: 20 bytes
    Differentiated Services Field: 0x00 (DSCP 0x00: Default; ECN: 0x00: Not-ECT (Not ECN-Capable Transport))
        0000 00.. = Differentiated Services Codepoint: Default (0x00)
        .... ..00 = Explicit Congestion Notification: Not-ECT (Not ECN-Capable Transport) (0x00)
    Total Length: 120
    Identification: 0x3039 (12345)
    Flags: 0x02 (Don't Fragment)
        0... .... = Reserved bit: Not set
        .1.. .... = Don't fragment: Set
        ..0. .... = More fragments: Not set
    Fragment offset: 0
    Time to live: 255
    Protocol: UDP (17)
    Header checksum: 0x591d [correct]
        [Good: True]
        [Bad: False]
    Source: 192.168.56.103 (192.168.56.103)
    Destination: 192.168.56.102 (192.168.56.102)
User Datagram Protocol, Src Port: domain (53), Dst Port: 33333 (33333)
    Source port: domain (53)
    Destination port: 33333 (33333)
    Length: 100
    Checksum: 0xfd6a [validation disabled]
        [Good Checksum: False]
        [Bad Checksum: False]
Domain Name System (response)
    Transaction ID: 0xb47a
    Flags: 0x8590 (Standard query response, No error)
        1... .... .... .... = Response: Message is a response
        .000 0... .... .... = Opcode: Standard query (0)
        .... .1.. .... .... = Authoritative: Server is an authority for domain
        .... ..0. .... .... = Truncated: Message is not truncated
        .... ...1 .... .... = Recursion desired: Do query recursively
        .... .... 1... .... = Recursion available: Server can do recursive queries
        .... .... .0.. .... = Z: reserved (0)
        .... .... ..0. .... = Answer authenticated: Answer/authority portion was not authenticated by the server
        .... .... ...1 .... = Non-authenticated data: Acceptable
        .... .... .... 0000 = Reply code: No error (0)
    Questions: 1
    Answer RRs: 1
    Authority RRs: 1
    Additional RRs: 1
    Queries
        x-6102069.dnsphishing.com: type A, class IN
            Name: x-6102069.dnsphishing.com
            Type: A (Host address)
            Class: IN (0x0001)
    Answers
        x-6102069.dnsphishing.com: type A, class IN, addr 1.2.3.4
            Name: x-6102069.dnsphishing.com
            Type: A (Host address)
            Class: IN (0x0001)
            Time to live: 3 days
            Data length: 4
            Addr: 1.2.3.4 (1.2.3.4)
    Authoritative nameservers
        x-6102069.dnsphishing.com: type NS, class IN, ns ns.x-6102069.dnsphishing.com
            Name: x-6102069.dnsphishing.com
            Type: NS (Authoritative name server)
            Class: IN (0x0001)
            Time to live: 3 days
            Data length: 5
            Name Server: ns.x-6102069.dnsphishing.com
    Additional records
        <Root>: type A, class IN, addr 1.2.3.5
            Name: <Root>
            Type: A (Host address)
            Class: IN (0x0001)
            Time to live: 3 days
            Data length: 4
            Addr: 1.2.3.5 (1.2.3.5)

0000  08 00 27 7b 1e e5 08 00 27 32 5b 06 08 00 45 00   ..'{....'2[...E.
0010  00 78 30 39 40 00 ff 11 59 1d c0 a8 38 67 c0 a8   .x09@...Y...8g..
0020  38 66 00 35 82 35 00 64 fd 6a 7b 3f 85 90 00 01   8f.5.5.d.j{?....
0030  00 01 00 01 00 01 09 78 2d 36 31 30 32 30 36 39   .......x-6102069
0040  0b 64 6e 73 70 68 69 73 68 69 6e 67 03 63 6f 6d   .dnsphishing.com
0050  00 00 01 00 01 c0 0c 00 01 00 01 00 03 f4 80 00   ................
0060  04 01 02 03 04 c0 0c 00 02 00 01 00 03 f4 80 00   ................
0070  05 02 6e 73 c0 0c c0 41 00 01 00 01 00 03 f4 80   ..ns...A........
0080  00 04 01 02 03 05                                 ......

